:100000000C945D000C9485000C9485000C94850084
:100010000C9485000C9485000C9485000C9485004C
:100020000C9485000C9485000C9485000C9485003C
:100030000C9485000C9485000C9485000C9485002C
:100040000C94E6090C9485000C94560A0C94300A22
:100050000C9485000C9485000C9485000C9485000C
:100060000C9485000C94850000000008000201003B
:100070000003040700000000000000000000000072
:10008000250028002B0000000000240027002A0083
:10009000040404040404040402020202020203032E
:1000A0000303030301020408102040800102040836
:1000B0001020010204081020540B11241FBECFEFA2
:1000C000D8E0DEBFCDBF11E0A0E0B1E0E6E2F9E1AB
:1000D00002C005900D92A632B107D9F721E0A6E241
:1000E000B1E001C01D92AC3CB207E1F710E0CDE5F4
:1000F000D0E004C02197FE010E94860CCC35D107C8
:10010000C9F70E94880A0C94910C0C94000090E0AE
:10011000FC01EC55FF4F2491FC01E057FF4F849107
:10012000882399F090E0880F991FFC01EA57FF4F50
:10013000A591B491FC01E458FF4F859194918FB73C
:10014000F894EC91E22BEC938FBF089590E0FC01C2
:10015000E859FF4F2491FC01EC55FF4F3491FC010D
:10016000E057FF4FE491EE2309F43CC0222339F11C
:10017000233091F038F42130A9F0223001F584B514
:100180008F7D12C0273091F02830A1F02430B9F4CF
:10019000809180008F7D03C0809180008F77809355
:1001A00080000DC084B58F7784BD09C08091B000F8
:1001B0008F7703C08091B0008F7D8093B000F0E016
:1001C000EE0FFF1FE458FF4FA591B4919FB7F8942D
:1001D000611104C08C913095382302C0EC913E2B04
:1001E0003C939FBF08953FB7F8948091C8019091C8
:1001F000C901A091CA01B091CB0126B5A89B05C049
:100200002F3F19F00196A11DB11D3FBFBA2FA92F95
:10021000982F8827820F911DA11DB11DBC01CD0112
:1002200042E0660F771F881F991F4A95D1F70895FE
:100230008F929F92AF92BF92CF92DF92EF92FF92F6
:100240000E94F3004B015C0184EFC82EDD24D3949F
:10025000E12CF12C0E94F300DC01CB0188199909F3
:10026000AA09BB09883E9340A105B10598F321E096
:10027000C21AD108E108F10888EE880E83E0981EC2
:10028000A11CB11CC114D104E104F10419F7FF90C1
:10029000EF90DF90CF90BF90AF909F908F90089598
:1002A000CF92DF92EF92FF920F931F93CF93DF9342
:1002B0006C017A018B01C0E0D0E0CE15DF0581F042
:1002C000D8016D918D01D601ED91FC910190F081E5
:1002D000E02DC6010995892B11F02196EECF7E0104
:1002E000C701DF91CF911F910F91FF90EF90DF90A9
:1002F000CF900895089580E090E00895FC01538D1B
:10030000448D252F30E0842F90E0821B930B5417EF
:1003100010F0CF96089501970895FC01918D828D7C
:10032000981761F0828DDF01A80FB11D5D968C9149
:10033000928D9F5F9F73928F90E008958FEF9FEF54
:100340000895FC01918D828D981731F0828DE80F10
:10035000F11D858D90E008958FEF9FEF0895FC01CA
:10036000918D228D892F90E0805C9F4F821B910997
:100370008F739927089586E291E00E94AF0121E0F2
:10038000892B09F420E0822F0895FC01848DDF0180
:10039000A80FB11DA35ABF4F2C91848D90E00196F8
:1003A0008F739927848FA689B7892C93A089B189E7
:1003B0008C91837080648C93938D848D981306C088
:1003C0000288F389E02D80818F7D80830895EF92EC
:1003D000FF920F931F93CF93DF93EC0181E0888FFF
:1003E0009B8D8C8D981305C0E889F989808185FDE6
:1003F00026C0F62E0B8D10E00F5F1F4F0F731127D5
:10040000E02E8C8DE8120CC00FB607FCFACFE889FD
:10041000F989808185FFF5CFCE010E94C501F1CF1A
:100420008B8DFE01E80FF11DE35AFF4FF0829FB75D
:10043000F8940B8FEA89FB89808180620AC09FB79C
:10044000F894EE89FF896083E889F9898081837057
:10045000806480839FBF81E090E0DF91CF911F9106
:100460000F91FF90EF900895CF93DF93EC01888D6B
:100470008823C9F0EA89FB89808185FD05C0A889A8
:10048000B9898C9186FD0FC00FB607FCF5CF80812E
:1004900085FFF2CFA889B9898C9185FFEDCFCE0178
:1004A0000E94C501E7CFDF91CF91089580E090E0F1
:1004B000892B29F00E94BB0181110C940000089542
:1004C00061E083E00E94A60060E083E00C94A60057
:1004D000811102C060E003C0813061F461E082E01C
:1004E0000E94A60061E084E00E94A60060E084E033
:1004F0000C94A60008957F928F929F92AF92BF9224
:10050000CF92DF92EF92FF920F931F93CF93DF93DF
:100510004C01762ED12CD714D9F196E1A92E91E079
:10052000B92E00E010E0E12CF12CE701C00FD11F43
:10053000C80DD91D88E0C82E88810E946802CA941F
:100540002896C110F9CF80E4E80EF11CE114E2E036
:10055000FE0659F70E946002F501D081F2E0AF0E6D
:10056000B11C61E08D2F0E94A600C0E480E00E94D3
:100570006802C150D9F70E94600260E08D2F0E948E
:10058000A6000F5F1F4F0830110569F6D394C3CF43
:10059000DF91CF911F910F91FF90EF90DF90CF905F
:1005A000BF90AF909F908F907F9008952F923F9231
:1005B0004F925F926F927F928F929F92AF92BF9273
:1005C000CF92DF92EF92FF920F931F93CF93DF931F
:1005D000CDB7DEB7D2500FB6F894DEBF0FBECDBF99
:1005E000F82E8E010F5F1F4F80E092E0F8019C0112
:1005F000119221503040E1F7A12CB12C812C912C8B
:10060000C12CD12CEE24E39480E090E020E030E097
:100610001401280E391E2C014A0C5B1C40E050E0EE
:100620003C01620E731EB601620F731FF101E20FEF
:10063000F31FE00FF11FDA01A60DB71DA00FB11FC8
:100640001C92A8E5FA1202C0D20109C0A9E5FA126B
:1006500002C0E08209C0AAE5FA1206C0DB01A40FBD
:10066000B51FA00FB11FEC92485F5F4F403451059A
:1006700011F7205C3F4F2115E2E03E0779F6019625
:100680008830910519F664E0C8010E947B02FFEFF3
:10069000CF1ADF0A28E0820E911C30E4A30EB11CB1
:1006A00048E0C416D10409F0AFCF80ECA82EBB24DB
:1006B000B39498E3892E912C27E0C22ED12CEE24FE
:1006C000E39480E090E020E030E01401281A390A39
:1006D0002501481A590A40E050E03901681A790AA0
:1006E000B601620F731FF901E20DF31DE953FE4FCE
:1006F000E00FF11FDA01A60DB71DA150BE4FA00FEC
:10070000B11F1C92A8E5FA1208C0D201A40FB51FB0
:10071000A00FB11FDF96EC9210C0A9E5FA1202C03B
:10072000E0820BC0AAE5FA1208C0DB01A40FB51FD6
:10073000A850BE4FA00FB11FEC9248505109403C49
:10074000AFEF5A07B9F6205431092115EEEF3E07F5
:1007500011F601968830910509F0B5CF64E0C80123
:100760000E947B02F1E0CF1AD10828E0821A91089A
:1007700030E4A31AB1084FEFC416D40609F0A1CF94
:10078000DE5F0FB6F894DEBF0FBECDBFDF91CF9115
:100790001F910F91FF90EF90DF90CF90BF90AF909F
:1007A0009F908F907F906F905F904F903F902F9091
:1007B00008952F923F924F925F926F927F928F9205
:1007C0009F92AF92BF92CF92DF92EF92FF920F93E0
:1007D0001F93CF93DF93CDB7DEB7C250D6400FB68D
:1007E000F894DEBF0FBECDBF8E010F5F1B4F80E0C0
:1007F00092E0F8019C01119221503040E1F743E072
:10080000642E712CCE0186529A4FCF5FD94F9983B7
:100810008883C150D640552453947E019FEFE91A36
:100820009DEFF90AFE0131961F016E01F6EACF1A1B
:10083000FBEFDF0AF60150825582568261E0C80163
:100840000E947B02F60150865586568661E0C801FB
:100850000E947B02F0E4CF0ED11CCF5FD94F2881DC
:100860003981C150D6402C153D0521F76E013DE17F
:10087000C31A3BEFD30A32E0432EA12CB12C460120
:1008800042E2841A9108F401EA0DFB1D528E61E0E8
:10089000C8010E947B028FEFA81AB80A94E0A9163B
:1008A000B10489F7560124E0922EF50151925F01BF
:1008B00061E0C8010E947B029A949110F6CF4A949D
:1008C000F0E4CF0ED11C4110D8CF0E941801F701DF
:1008D00020E032E0119221503040E1F761E0C701A1
:1008E0000E947B02CC24C394D12C9701205F3F4F00
:1008F00044E09C2D6BEF6C0DF90180E0913031F4F8
:100900005DEF580F5230B8F4918315C0923031F436
:10091000823011F0853031F5528224C0933031F4A9
:10092000813011F08630F1F453821CC0943019F4F8
:10093000811187C05482623068F4882331F0873097
:1009400021F05DEF580F523068F4DF01AC0DBD1D92
:100950005C9208C0973031F4582F5B7F5150523071
:1009600008F457828F5FE05CFF4F883039F64150C2
:10097000285F3F4F4111C0CF65E0C7010E947B0255
:100980003FEFC31AD30A48E0C416D10409F0ADCF33
:100990000E941801F10120E032E011922150304014
:1009A000E1F762E0C1010E947B02CC24C394D12C08
:1009B0009E012F5E3F4F94E0F90180E041E0C412B8
:1009C00006C04EEF480F443030F4518204C08130ED
:1009D000E1F18630D1F18F5FE05CFF4F883071F735
:1009E0009150285F3F4F9111E7CF65E0C1010E9410
:1009F0007B028FEFC81AD80A98E0C916D104C1F655
:100A00000E941801E1E06E1A710809F00ECFCE5F66
:100A1000D94F0FB6F894DEBF0FBECDBFDF91CF9197
:100A20001F910F91FF90EF90DF90CF90BF90AF900C
:100A30009F908F907F906F905F904F903F902F90FE
:100A40000895873009F08ECF75CFDF01AC0DBD1D45
:100A50005C92C1CF7F928F929F92AF92BF92CF92C2
:100A6000DF92EF92FF920F931F93CF93DF93CDB757
:100A7000DEB7D2500FB6F894DEBF0FBECDBF9E01D9
:100A80002F5F3F4F590180E092E0F9019C011192E4
:100A900021503040E1F700E010E077247394E12C1E
:100AA000F12CC12CD12C48018E0C9F1CF401EC0DB3
:100AB000FD1DEA0DFB1D708261E0C5010E947B02F5
:100AC00030E4C30ED11CC11482E0D80679F798E057
:100AD000E90EF11CE0E4EE16F10419F70F5F1F4F69
:100AE00008301105E1F6DE5F0FB6F894DEBF0FBEE9
:100AF000CDBFDF91CF911F910F91FF90EF90DF90CD
:100B0000CF90BF90AF909F908F907F9008958F92DD
:100B10009F92BF92CF92DF92EF92FF920F931F931B
:100B2000CF93DF93CDB7DEB7D2500FB6F894DEBFC8
:100B30000FBECDBF9E012F5F3F4F690180E092E065
:100B4000F9019C01119221503040E1F762E0C601A9
:100B50000E947B027E0131E1E30EF11C10E001E016
:100B6000970194E0BB24BA94B10E40E050E080E0DD
:100B7000490160E4860E911CD901A058BE4FE5E002
:100B8000EB1528F0813071F4F40180830BC0111152
:100B900038C06EEF680F643028F4B901640F751F18
:100BA000FB010083113011F0163019F4863009F47E
:100BB0000C938F5F405C5F4F883009F79150285F3E
:100BC0003F4F9111D2CF65E0C6010E947B021F5FAB
:100BD000FFEFEF1AFF0A183019F60E941801DE5FC6
:100BE0000FB6F894DEBF0FBECDBFDF91CF911F913E
:100BF0000F91FF90EF90DF90CF90BF909F908F90DC
:100C00000895173079F6C5CFDF92EF92FF920F93D8
:100C10001F93CF93DF93CDB7DEB7D2500FB6F894C2
:100C2000DEBF0FBECDBF9E012F5F3F4F790180E039
:100C300092E0F9019C01119221503040E1F762E00D
:100C4000C7010E947B0200E010E0DD24D3949E01E6
:100C50002F5E3F4F94E0402FF9018DEF53E0580F86
:100C6000533020F4DF01A00FB11FDC92442311F0B8
:100C7000473031F4843048F4DF01A00FB11FDC921B
:100C8000443019F4833008F4D4828F5FE05CFF4F66
:100C9000853021F79150285F3F4F9111DDCF65E0FE
:100CA000C7010E947B020F5F1F4F0830110579F6C4
:100CB0000E941801DE5F0FB6F894DEBF0FBECDBFF5
:100CC000DF91CF911F910F91FF90EF90DF900895EA
:100CD000DF92EF92FF920F931F93CF93DF93CDB7E5
:100CE000DEB7D2500FB6F894DEBF0FBECDBF9E0167
:100CF0002F5F3F4F790180E092E0F9019C01119252
:100D000021503040E1F762E0C7010E947B0200E021
:100D100010E0DD24D394902F20E030E0A801405B68
:100D20005F4F602F6B7F7FEF700FFA01E20FF31FB1
:100D3000EE0DFF1D81E0662311F0973019F4863027
:100D400009F0D082743010F0963039F4AFEFA80F6C
:100D5000A23010F0863009F4D0828F5FE05CFF4F44
:100D6000873049F7285F3F4F20323105F1F665E0C3
:100D7000C7010E947B020F5F1F4F0830110559F613
:100D80000E941801DE5F0FB6F894DEBF0FBECDBF24
:100D9000DF91CF911F910F91FF90EF90DF90089519
:100DA000CF92DF92FF920F931F93CF93DF93CDB734
:100DB000DEB7D2500FB6F894DEBF0FBECDBF9E0196
:100DC0002F5F3F4F690180E092E0F9019C01119291
:100DD00021503040E1F762E0C6010E947B0200E052
:100DE00010E0FF24F394AE014B5A5F4F24E0902FA4
:100DF000B80164507109FA0181E0963080F48130C5
:100E000011F0863021F4DF01A60FB71FFC92943059
:100E100031F43EEF380F343088F4F0820FC0963052
:100E200031F4823011F0853049F4F28207C09730F6
:100E300029F43DEF380F323008F4F3828F5FE05C25
:100E4000FF4F8830D1F62150485F5F4F2111D3CF3B
:100E500065E0C6010E947B020F5F1F4F083011053D
:100E600011F60E941801DE5F0FB6F894DEBF0FBEC8
:100E7000CDBFDF91CF911F910F91FF90DF90CF9069
:100E800008952F923F924F925F926F927F928F922E
:100E90009F92AF92BF92CF92DF92EF92FF920F9309
:100EA0001F93CF93DF93CDB7DEB7C150D2400FB6BB
:100EB000F894DEBF0FBECDBF8E010F5F1F4F80E0E5
:100EC00092E0F8019C01119221503040E1F7212C71
:100ED00098E0C92ED12CE12CF12C0E94CC0B24E0FF
:100EE00030E040E050E00E94230C6F5FCF5FDD4FA9
:100EF0006883C150D240312CCF5FDD4F3881C15063
:100F0000D240331630F50E94CC0B4B015C010E949D
:100F1000CC0B2B013C01C501B401A70196010E9435
:100F2000230CB62EC301B201A70196010E94230C27
:100F300048E0B49EF0011124E60FF11D83E0EE0FAE
:100F4000FF1F8A95E1F7E00FF11F81E0878333945B
:100F5000D3CF67E0C8010E947B0280E090E020E0F0
:100F600030E0F901E80FF91FE00FF11F48E051816F
:100F70005083415038964111FACF205C3F4F2115E4
:100F8000E2E03E0771F701968730910541F7A8012D
:100F900028E080E090E0FA01E80FF91F1782089638
:100FA00080349105C1F72150405C5F4F2111F1CF92
:100FB0002394F4E62F1291CFCF5FDD4F0FB6F89454
:100FC000DEBF0FBECDBFDF91CF911F910F91FF907C
:100FD000EF90DF90CF90BF90AF909F908F907F90D9
:100FE0006F905F904F903F902F9008952F923F9277
:100FF0004F925F926F927F928F929F92AF92BF9229
:10100000CF92DF92EF92FF920F931F93CF93DF93D4
:10101000CDB7DEB7CB54D2400FB6F894DEBF0FBECB
:10102000CDBFCF5BDD4F8883C154D2409E012F5F7F
:101030003F4F390180E092E0F9019C01119221506B
:101040003040E1F72E013FEF431A3DEF530A80E4B1
:10105000F20111928A95E9F7C301A30161E0E0E092
:10106000F0E020E030E0CF5BDD4F7881C154D2402A
:10107000783511F4DA0108C0CF5BDD4F7881C154B7
:10108000D240DC01793519F4A20FB31F02C0AE0FB4
:10109000BF1F6C932F5F3F4F38962830310519F7EB
:1010A000485F5F4F805C9F4F84159505C1F668E0EF
:1010B000C3010E947B027E0182E0E80EF11CE7E0A2
:1010C000F0E0CE5BDD4FF983E883C254D24050E4B8
:1010D000C52ED12C68E0862E912CA12CB12C332466
:1010E000339410E0183009F43FC00E94CC0BCC5B65
:1010F000DD4F688379838A839B83C454D2400E94E6
:10110000CC0BC85BDD4F688379838A839B83C8548B
:10111000D240CC5BDD4F688179818A819B81C45448
:10112000D240A50194010E94230C062FC85BDD4F1D
:10113000688179818A819B81C854D240A50194013C
:101140000E94230CF20128E0029FE00DF11D112402
:10115000E60FF11D80818111C5CF30821F5F61E0F4
:10116000C3010E947B02BECF970180E090E0D901CD
:1011700000E010E0CE5BDD4F48815981C254D2407F
:10118000420F531FBC016C0D7D1DF801E80FF91FC4
:10119000E40DF51DE081E11128C0CF5BDD4FE88152
:1011A000C154D240E83549F4F801E60FF71FE60DC7
:1011B000F71D3082E054F10917C0CF5BDD4FF88195
:1011C000C154D240F93531F4FA01E00FF11F3082F9
:1011D00038970AC0CF5BDD4FE881C154D240EA3571
:1011E00021F43C92FD01319710820F5F1F4F18963A
:1011F0000830110551F60896205C3F4F8034910568
:1012000009F0B5CFF0E4CF0ED11CCE5BDD4F2881C5
:101210003981C254D240295F3F4FCE5BDD4F3983C5
:101220002883C254D2403FEFE31AF30AC11462E0AC
:10123000D60609F056CF64E0C3010E947B0238E372
:10124000432E512C40EC842E9924939422242394F1
:10125000422D50E0401751070CF094C0FA0183E092
:10126000EE0FFF1F8A95E1F7CA0126E0880F991F4C
:101270002A95E1F7CC5BDD4F19821882C454D24025
:1012800020E030E05201AE1ABF0A7401E81AF90AF0
:10129000C501820F931F860D971DCC5BDD4FA88182
:1012A000B981C454D240AE0DBF1DA60DB71DF901C2
:1012B000E41BF50BBF01660D771DC85BDD4F79831D
:1012C0006883C854D240312CCF5BDD4F7881C15444
:1012D000D240783559F47C91713051F56D01E0E4DC
:1012E000CE0ED11CF60170831C9222C0CF5BDD4F65
:1012F000F881C154D240F93549F4FC01D080F1E0C5
:10130000DF1216C0FC01D086108212C0C85BDD4F10
:10131000E881F981C854D240D780F1E0DF1208C0DB
:10132000C85BDD4FE881F981C854D240D08617826E
:10133000339401961196C85BDD4F68817981C8545A
:10134000D240685F7F4FC85BDD4F79836883C854A4
:10135000D24078E03712B8CF205C3F4FCC5BDD4FF6
:1013600088819981C454D2400896CC5BDD4F998323
:101370008883C454D240211592E0390709F088CF00
:10138000239466CF68E0C3010E947B0201501109DB
:1013900009F05CCFC55BDD4F0FB6F894DEBF0FBE22
:1013A000CDBFDF91CF911F910F91FF90EF90DF9014
:1013B000CF90BF90AF909F908F907F906F905F90F5
:1013C0004F903F902F9008950E948C0C1F920F9287
:1013D0000FB60F9211242F933F938F939F93AF9348
:1013E000BF938091C4019091C501A091C601B091B5
:1013F000C7013091C30123E0230F2D3720F401965C
:10140000A11DB11D05C026E8230F0296A11DB11D27
:101410002093C3018093C4019093C501A093C6019A
:10142000B093C7018091C8019091C901A091CA01F0
:10143000B091CB010196A11DB11D8093C80190937D
:10144000C901A093CA01B093CB01BF91AF919F9105
:101450008F913F912F910F900FBE0F901F90189575
:101460001F920F920FB60F9211242F933F934F9319
:101470005F936F937F938F939F93AF93BF93EF93FC
:10148000FF9386E291E00E94C501FF91EF91BF9129
:10149000AF919F918F917F916F915F914F913F910C
:1014A0002F910F900FBE0F901F9018951F920F92C3
:1014B0000FB60F9211242F938F939F93EF93FF9367
:1014C000E0913601F09137018081E0913C01F0918B
:1014D0003D0182FD12C0908180913F018F5F8F732B
:1014E00020914001821751F0E0913F01F0E0EA5D68
:1014F000FE4F958F80933F0101C08081FF91EF9156
:101500009F918F912F910F900FBE0F901F90189564
:10151000789484B5826084BD84B5816084BD85B5CE
:10152000826085BD85B5816085BD80916E008160DA
:1015300080936E0010928100809181008260809380
:101540008100809181008160809381008091800082
:101550008160809380008091B10084608093B100AD
:101560008091B00081608093B00080917A008460A7
:1015700080937A0080917A00826080937A008091D3
:101580007A00816080937A0080917A0080688093ED
:101590007A001092C100E0913601F091370182E0AB
:1015A0008083E0913201F09133011082E0913401A7
:1015B000F09135018FEC808310923E01E0913A0169
:1015C000F0913B0186E08083E0913801F091390190
:1015D000808180618083E0913801F09139018081C0
:1015E00088608083E0913801F091390180818068C2
:1015F0008083E0913801F091390180818F7D808373
:1016000082E00E94870084E00E94870083E00E94BD
:101610008700C6E1D1E0888122960E94870081E0A0
:10162000C632D807C1F786E291E00E94AF01892B4C
:10163000C1F186E291E00E948D018333B1F03CF468
:10164000813381F0823339F50E94D9032AC0843373
:10165000F9F0853301F50E9487050E9404060E9477
:1016600004061DC00E9441071CC088E50E94D602E6
:1016700089E50E94D6028AE50E94D60288E50E948A
:10168000F60789E50E94F6078AE50E94F60709C079
:101690000E942A0506C00E94D0060E9468060E9489
:1016A00087050E945602BFCFE6E2F1E01382128264
:1016B00088EE93E0A0E0B0E084839583A683B783AF
:1016C00088E091E09183808385EC90E09587848722
:1016D00084EC90E09787868780EC90E0918B808BFC
:1016E00081EC90E0938B828B82EC90E0958B848BE5
:1016F00086EC90E0978B868B118E128E138E148E53
:1017000008958F929F92AF92BF92CF92DF92EF9205
:10171000FF92CF93DF93EC01688179818A819B816D
:10172000611571058105910521F464E279ED8BE580
:1017300097E02DE133EF41E050E00E94230C490196
:101740005A019B01AC01A7EAB1E40E94420C6B0173
:101750007C01ACEEB4EFA50194010E94500CDC01B9
:10176000CB018C0D9D1DAE1DBF1DB7FF03C00197A2
:10177000A109B04888839983AA83BB83BC01CD01AA
:101780009F77DF91CF91FF90EF90DF90CF90BF9048
:10179000AF909F908F9008958F929F92AF92BF923B
:1017A000CF92DF92EF92FF92609100017091010160
:1017B00080910201909103016115710581059105E8
:1017C00021F464E279ED8BE597E02DE133EF41E020
:1017D00050E00E94230C49015A019B01AC01A7EA89
:1017E000B1E40E94420C6B017C01ACEEB4EFA501A8
:1017F00094010E94500CDC01CB018C0D9D1DAE1D8F
:10180000BF1DB7FF03C00197A109B0488093000135
:1018100090930101A0930201B0930301BC01CD019B
:101820009F77FF90EF90DF90CF90BF90AF909F9009
:101830008F900895609300017093010180930201DD
:10184000909303010895052E97FB1EF400940E94C7
:101850003A0C57FD07D00E94550C07FC03D04EF4FC
:101860000C943A0C50954095309521953F4F4F4F31
:101870005F4F089590958095709561957F4F8F4F3C
:101880009F4F08950E94770CA59F900DB49F900DD7
:10189000A49F800D911D11240895B7FF0C94420C54
:1018A0000E94420C821B930B0895A1E21A2EAA1BE0
:1018B000BB1BFD010DC0AA1FBB1FEE1FFF1FA21700
:1018C000B307E407F50720F0A21BB30BE40BF50BFD
:1018D000661F771F881F991F1A9469F76095709586
:1018E000809590959B01AC01BD01CF010895A29F09
:1018F000B001B39FC001A39F700D811D1124911DE4
:10190000B29F700D811D1124911D0895EE0FFF1FD0
:101910000590F491E02D099481E090E0F8940C9406
:06192000910CF894FFCFCA
:101926000100000000000000E70150017E013402C2
:10193600AF018D01A101050006000700080009009E
:061946000A000B000C007A
:00000001FF
